S01500006D7363686F7265722D6772626C2E73726563D8
S11300000C94F2040C940F050C940F050C94442BDF
S11300100C942E350C940F050C940F050C940F05BD
S11300200C940F050C9411370C940F050C940618BE
S11300300C940F050C940F050C940F050C940F05EC
S11300400C941C1A0C940F050C94EB150C94AD1520
S11300500C940F050C940F050C940F050C940F05CC
S11300600C94BB370C940F05490B490B490B490BF6
S1130070EB0A96149614961496149614E30A96149E
S1130080961496149614961496148A0B8A0B8A0B5B
S1130090BF0BBF0B961496149614961496149614CC
S11300A0E30A9614E30A9614961496149614961476
S11300B096149614490B9614961496149614CD0B14
S11300C096149614961496149614CD0B96149614AE
S11300D09614EB0AE10BE10BE10BE10BE10BE10BF5
S11300E096149614961496149614961496149614BC
S11300F096149614961496149614961496149614AC
S113010096149614961496144F0B961496149614EB
S1130110961496149614961496149614A30BA30B83
S1130120E30AB10BB10B0F0C0F0C0F0C270C270CAF
S1130130270C210C3E0C3E0C3E0CAC14AC14AC143D
S1130140AC14AC14AC14AC14AC14AC14AC14AC14AB
S1130150AC14AC14AC14AC14AC14AC14AC14AC149B
S1130160AC140F0C780CB014820C870C940CA10CFA
S1130170AE0CB014B20CB014C00CB014CA0CD40C35
S1130180DE0CB014B014B014E20CEF0CFC0C8213AF
S1130190D613F513D613FB13121401140B14FD23F9
S11301A00324062409240C241A242824C024C0244B
S11301B0C0243624382441244A245824C024C0248A
S11301C0C024C024C024662476248624942497243E
S11301D0A024A924B024C62FCB2FD02FD52FDA2FBB
S11301E0DF2FE42FE92FEE2FF32FF82F0C300C30F4
S11301F00C300C300C300C300C300C300230FD2F35
S113020007303B34543459345D344F345D345D34F9
S11302105D3440345D345D345D345D345D345D346F
S11302205D3445345D345D345D345D345D345D345A
S11302305D345D345D345D345D345D345D345D3432
S11302405D344A34343748374C37503744375037A5
S1130250503750373837503750375037503750377A
S11302605037503740375037503750375037503762
S11302705037503750375037503750375037503742
S1130280503750373C37623776377A377E37723794
S11302907E377E377E3766377E377E377E377E37CA
S11302A07E377E377E376E377E377E377E377E37B2
S11302B07E377E377E377E377E377E377E377E3792
S11302C07E377E377E376A37084AD73B3BCE016E8E
S11302D084BCBFFDC12F3D6C74319ABD56833DDA99
S11302E03D00C77F11BED9E4BB4C3E916BAAAABEA8
S11302F0000000803F05A84CCDB2D44EB93836A9D1
S1130300020C50B9918688083CA6AAAA2ABE00000D
S113031000803F003E0D0A002C52583A002C4275D2
S1130320663A002C002C57506F733A002C002C4D69
S1130330506F733A003C436865636B003C416C61E9
S1130340726D003C486F6D65003C486F6C64003C06
S113035052756E003C5175657565003C49646C6569
S1130360005D0D0A003A005B302E39672E323031C1
S113037034303830352E302D000D0A003D00244E27
S1130380005D0D0A00204600204800205400204D46
S11303903700204D3800204D3900204D3500204DC8
S11303A03400204D3300204D3200204D3100204DCB
S11303B03000204739340020473933002047393191
S11303C000204739300020473230002047323100C6
S11303D02047313900204731380020473137002089
S11303E047005B473830005B4733005B4732005BB4
S11303F04731005B4730005D0D0A002C002058593E
S11304005A20002052005B54005D0D0A002C005B52
S11304104739323A005D0D0A002C003A00333000AF
S11304203238005B47005D0D0A002C005B505242DD
S11304303A00290D0A00206D617820747261766596
S11304406C2C206D6D0020616363656C2C206D6DD8
S11304502F7365635E3200206D617820726174656C
S11304602C206D6D2F6D696E002C20737465702FB8
S11304706D6D007A00790078002028003D0024008A
S11304802028686F6D696E672070756C6C2D6F66BF
S1130490662C206D6D290D0A002028686F6D696E29
S11304A067206465626F756E63652C206D73656388
S11304B0290D0A2432373D002028686F6D696E6764
S11304C0207365656B2C206D6D2F6D696E290D0A87
S11304D02432363D002028686F6D696E672066659A
S11304E065642C206D6D2F6D696E290D0A243235DB
S11304F03D00290D0A2432343D002028686F6D69BF
S11305006E672064697220696E76657274206D610D
S1130510736B3A002028686F6D696E672063796396
S11305206C652C20626F6F6C290D0A2432333D00F8
S1130530202868617264206C696D6974732C206270
S11305406F6F6C290D0A2432323D002028736F66C8
S113055074206C696D6974732C20626F6F6C290D43
S11305600A2432313D0020286175746F2073746150
S113057072742C20626F6F6C290D0A2432303D0096
S113058020287265706F727420696E636865732CBD
S113059020626F6F6C290D0A2431343D00202861DC
S11305A0726320746F6C6572616E63652C206D6D6F
S11305B0290D0A2431333D0020286A756E6374695D
S11305C06F6E20646576696174696F6E2C206D6D41
S11305D0290D0A2431323D00290D0A2431313D0010
S11305E02028737461747573207265706F7274203F
S11305F06D61736B3A00202870726F6265207069B8
S11306006E20696E766572742C20626F6F6C290D92
S11306100A2431303D0020286C696D6974207069AA
S11306206E7320696E766572742C20626F6F6C290C
S11306300D0A24363D0020287374657020656E61B0
S1130640626C6520696E766572742C20626F6F6CC3
S1130650290D0A24353D00290D0A24343D002028A3
S113066064697220706F727420696E76657274208A
S11306706D61736B3A00290D0A24333D0020287301
S113068074657020706F727420696E766572742060
S11306906D61736B3A002028737465702069646C13
S11306A0652064656C61792C206D736563290D0A7E
S11306B024323D002028737465702070756C736556
S11306C02C2075736563290D0A24313D0024303DC7
S11306D0002424202876696577204772626C207391
S11306E0657474696E6773290D0A2423202876695A
S11306F06577202320706172616D6574657273295A
S11307000D0A244720287669657720706172736525
S113071072207374617465290D0A2449202876694E
S11307206577206275696C6420696E666F290D0AAD
S1130730244E20287669657720737461727475700D
S113074020626C6F636B73290D0A24783D76616CAB
S11307507565202873617665204772626C20736525
S11307607474696E67290D0A244E783D6C696E6550
S113077020287361766520737461727475702062C9
S11307806C6F636B290D0A24432028636865636BCF
S11307902067636F6465206D6F6465290D0A2458B2
S11307A020286B696C6C20616C61726D206C6F63C6
S11307B06B290D0A2448202872756E20686F6D69B4
S11307C06E67206379636C65290D0A7E202863793E
S11307D0636C65207374617274290D0A2120286684
S11307E065656420686F6C64290D0A3F2028637571
S11307F07272656E7420737461747573290D0A6363
S113080074726C2D78202872657365742047726247
S11308106C290D0A000D0A4772626C20302E39676C
S1130820205B32303134303830352E305D205B2758
S1130830242720666F722068656C705D0D0A005D68
S11308400D0A0044697361626C656400456E6162FF
S11308506C65640043617574696F6E3A20556E6C03
S11308606F636B656400272448277C27245827205E
S1130870746F20756E6C6F636B00526573657420C2
S1130880746F20636F6E74696E7565005B000D0A8A
S11308900050726F6265206661696C0041626F721C
S11308A07420647572696E67206379636C650048AF
S11308B06172642F736F6674206C696D6974004192
S11308C04C41524D3A20000D0A00496E76616C6924
S11308D0642067636F64652049443A00556E64651B
S11308E066696E656420666565642072617465007E
S11308F0556E737570706F7274656420636F6D6D7F
S1130900616E64004D6F64616C2067726F75702056
S113091076696F6C6174696F6E004C696E65206FE7
S1130920766572666C6F7700486F6D696E67206ECE
S11309306F7420656E61626C656400416C61726DF8
S1130940206C6F636B004E6F742069646C650045A6
S11309504550524F4D2072656164206661696C2E6A
S1130960205573696E672064656661756C747300E5
S113097056616C7565203C203320757365630053A4
S1130980657474696E672064697361626C65640080
S113099056616C7565203C203000496E76616C6947
S11309A0642073746174656D656E740042616420C3
S11309B06E756D62657220666F726D617400457844
S11309C070656374656420636F6D6D616E64206C23
S11309D06574746572006572726F723A20006F6B91
S11309E00D0A000011241FBECFEFD8E0DEBFCDBF3B
S11309F011E0A0E0B1E0E2E6F9E702C005900D9253
S1130A00A630B107D9F727E0A6E0B1E001C01D92F6
S1130A10A039B207E1F70E9411050C94AF3C0C9485
S1130A2000000E9478150E9419250E94A51A0E94B0
S1130A301D350E94FD360E949437E3E8F5E08EE10F
S1130A40DF011D928A95E9F781E080837894809193
S1130A507D0784FF03C081E0809384050F2EF3E8B3
S1130A60CF2EF5E0DF2EF02D0F2EF5E8EF2EF5E07A
S1130A70FF2EF02D0DE717E0C3E9D5E0BB24B394B6
S1130A800E9449160E94F5090E9429150E946015CA
S1130A900E94242B0E94802F0E949C260E94321ABE
S1130AA00E94D5290E941B0AF6011082D7011C92CC
S1130AB0F801808181FF02C0B88201C018820E94BF
S1130AC0F016DECFBF92CF92DF92EF92FF920F9398
S1130AD01F93CF93DF938C016A017B01B22E809127
S1130AE07D0785FF03C0C8010E94AE2D8091840557
S1130AF08230D9F0C3E8D5E00E944E168881811176
S1130B0014C00E94EC26882319F00E94E316F4CF47
S1130B102B2DB701A601C8010E94F42680918405FB
S1130B20811103C088E080938405DF91CF911F91E8
S1130B300F91FF90EF90DF90CF90BF9008952F9288
S1130B403F924F925F926F927F928F929F92AF9259
S1130B50BF92CF92DF92EF92FF920F931F93CF93A6
S1130B60DF93CDB7DEB7E9970FB6F894DEBF0FBEBB
S1130B70CDBF9A8B898B79AF68AF3A0109871A8701
S1130B802B873C87AB8A482C512C1201220C331C36
S1130B90220C331C820D931D9D8B8C8B9A01220D8C
S1130BA0331D3DAB2CABD9018D909D90AD90BC9085
S1130BB0FC012081318142815381C501B4010E942D
S1130BC083386E8B7F8B888F998F2F960FAD2F97DD
S1130BD010E0000F111F000F111F29893A89200FFF
S1130BE0311F3B8F2A8FA301400F511F5FAB4EABC8
S1130BF0DA018D919D910D90BC91A02D89839A83EA
S1130C00AB83BC83F9012081318142815381BC01D2
S1130C10CD010E9483386C8F7D8F8E8F9F8F24012E
S1130C20350177FA709477F8709489809A80AB8054
S1130C30BC80B7FAB094B7F8B094E8ADF9ADE20D62
S1130C40F31D2E893F89488D598D60817181828180
S1130C5093810E94823869837A838B839C83E8AD75
S1130C60F9ADE00FF11F2C8D3D8D4E8D5F8D6081B0
S1130C707181828193810E9482386D837E838F8308
S1130C80988729813A814B815C81C301B2010E941A
S1130C909A3B6D877E878F87988B2D813E814F810C
S1130CA05885C501B4010E949A3B9B01AC016D8536
S1130CB07E858F8598890E9483386D877E878F878C
S1130CC0988B2D813E814F815885C301B2010E94CA
S1130CD09A3B6D837E838F83988729813A814B81E8
S1130CE05C81C501B4010E949A3B9B01AC016D81FA
S1130CF07E818F8198850E9482382D853E854F851F
S1130D0058890E94F63869837A838B839C83809107
S1130D10BD058230D1F420E030E0A90169817A81F7
S1130D208B819C810E945F3B882344F12BED3FE043
S1130D3049EC50E469817A818B819C810E948238DC
S1130D4069837A838B839C8319C020E030E0A901F6
S1130D5069817A818B819C810E945C39181674F0B8
S1130D602BED3FE049EC50E469817A818B819C81D1
S1130D700E94833869837A838B839C8320917907CB
S1130D8030917A0740917B0750917C072D833E83F5
S1130D904F83588729853A854B855C85CA01B901FB
S1130DA00E9483382D813E814F8158850E9482386C
S1130DB09B01AC016D817E818F8198850E949A3B55
S1130DC00E94273C6D837E838F83988720E030E0E8
S1130DD040E05FE369817A818B819C810E949A3B28
S1130DE029853A854B855C850E949A3B9F772D81A6
S1130DF03E814F8158850E9463390E94393A0E948E
S1130E00D03969877A878B879C8749855A855E871D
S1130E104D87452B09F48EC15B89552379F0A9854B
S1130E20BA85BD0180E090E00E94FC399B01AC01D1
S1130E30C701B6010E949A3B6B017C01E985FA85E2
S1130E40BF0180E090E00E94FC3969877A878B8734
S1130E509C879B01AC0169817A818B819C810E9472
S1130E60633968AB79AB8AAB9BAB60968FAD609707
S1130E7090E0880F991F880F991F29893A89280FB4
S1130E80391F3A832983E8ADF9ADE80FF91FD90179
S1130E902D913D914D915C9160817181828193810D
S1130EA00E94823829853A854B855C850E94633986
S1130EB06CA37DA38EA39FA328A939A94AA95BA9E2
S1130EC0CA01B9010E949A3B9B01AC0160E070E049
S1130ED080E090E40E94823869877A878B879C87B8
S1130EE02BEA3AEA4AE25EE368A979A98AA99BA9AE
S1130EF00E949A3B6D837E838F83988720E030E045
S1130F0040E850E469857A858B859C850E94833806
S1130F109B01AC016D817E818F8198850E949A3BF3
S1130F2068A779A78AA79BA720E030E040E05FE3A9
S1130F3069857A858B859C850E949A3B6CA77DA7E1
S1130F408EA79FA7ED85FE85329708F4F3C010E0C5
S1130F5022242394312CC8A2D9A2EAA2FBA21C30D9
S1130F60D0F52CA53DA54EA55FA5C501B4010E94F1
S1130F709A3B6B017C0128A539A54AA55BA5C30151
S1130F80B2010E949A3BA70196010E948338D62E93
S1130F90E72EF82E092F2CA53DA54EA55FA5C3016C
S1130FA0B2010E949A3B2B013C0128A539A54AA510
S1130FB05BA5C501B4010E949A3B9B01AC01C3012E
S1130FC0B2010E9482382B013C011F5F8D2C9E2CA4
S1130FD0AF2CB02E64C0B10180E090E00E94FC39D7
S1130FE028A939A94AA95BA90E949A3B4B015C0133
S1130FF00E9460396B017C01C501B4010E941D3C53
S11310004B015C01ECA9FDA980819181A281B3818E
S11310109C01AD01505829873A874B875C87AEA95C
S1131020BFA98D919D910D90BC91A02D8D839E8320
S1131030AF83B887A701960169857A858B859C85DE
S11310400E949A3B2B013C01A50194016D817E8194
S11310508F8198850E949A3B9B01AC01C301B20128
S11310600E9483382B013C0129853A854B855C8598
S1131070C501B4010E949A3B4B015C012D813E8164
S11310804F815885C701B6010E949A3B9B01AC0170
S1131090C501B4010E9482384B015C0110E0A30138
S11310A092016E897F89888D998D0E948338EC899D
S11310B0FD896083718382839383A50194016C8D80
S11310C07D8D8E8D9F8D0E948338AA8DBB8D6D93EF
S11310D07D938D939C9313972CA13DA14EA15FA169
S11310E0E981FA8160817181828193810E948338D0
S11310F0A981BA816D937D938D939C9313972B89CA
S113110048A159A16AA17BA189899A890E94620593
S1131110E3E8F5E08081811114C0FFEF2F1A3F0A44
S11311202D853E852216330609F019CFC8A0D9A013
S1131130EAA0FBA02B89B701A60188AD99AD0E9456
S11311406205E9960FB6F894DEBF0FBECDBFDF91FE
S1131150CF911F910F91FF90EF90DF90CF90BF90B0
S1131160AF909F908F907F906F905F904F903F9043
S11311702F9008958F929F92AF92BF92CF92DF9259
S1131180EF92FF92CF93DF934B015C018091840532
S1131190823009F44AC020E030E040EA51E4C5015D
S11311A0B4010E949A3B0E94393A0E94D0396B01E3
S11311B07C01EB010E94911720E030E04AE754E4FF
S11311C0C501B4010E949A3B4B015C0182E38C9DF2
S11311D0B0018D9D700D112480E090E00E94FC39D7
S11311E09B01AC01C501B4010E9482380E94393AC6
S11311F00E94D039CB010E94E62ACD2BB1F0C3E87E
S1131200D5E00E944E16888181110FC02FEF80E730
S113121092E0215080409040E1F700C0000021E0BE
S1131220C21AD108C114D10461F7DF91CF91FF90A4
S1131230EF90DF90CF90BF90AF909F908F900895E4
S113124084E0809384050E94192B84E00E94782B0B
S113125083E00E94782B0E944E16809183058111B1
S113126008C00E941B0A109284050E94D9170E948C
S1131270242B08952F923F925F926F927F928F92C8
S11312809F92AF92BF92CF92DF92EF92FF920F9311
S11312901F93CF93DF93682E792E6A017B01522E20
S11312A00E9491178091830581116EC0252DB7018D
S11312B0A601862D972D0E94620581E080939405F6
S11312C08FB7F894E5E8F5E09081926090838FBF42
S11312D0C3E8D5E004E815E00E944E168881811128
S11312E053C0F8018081877FB9F7809194058130DC
S11312F041F48FB7F894E5E8F5E090819064908329
S11313008FBF0E944E168091830581113DC00E94BB
S1131310321A0E949C260E94D529C5E9D5E000E432
S113132017E0262C372C6991799189919991F801CC
S113133081909190A190B1908F010E94FE39A501F6
S113134094010E946339F1016193719381939193A4
S11313501F01F5E0C13ADF0731F7252DB701A601DA
S1131360862D972D0E9462058FB7F894E5E8F5E085
S11313709081926090838FBF0E9491178091830522
S1131380811102C00E940632DF91CF911F910F910B
S1131390FF90EF90DF90CF90BF90AF909F908F9091
S11313A07F906F905F903F902F9008958091850576
S11313B084FD1AC08FB7F894E5E8F5E09081906158
S11313C090838FBF0E9421150E946315809184052C
S11313D0847351F08FB7F894E5E8F5E0908190625A
S11313E090838FBF0E94D91708951F93CF93DF93E3
S11313F088E8EDEBF5E0DF011D928A95E9F76DE2EF
S113140076E080E00E946D2381110DC087E00E9488
S1131410AD2F09C0BE01812F0E948E231F5F6096ED
S11314201530C1F704C0C1EED5E011E0F3CFDF9170
S1131430CF911F9108958F929F92AF92BF92CF92B6
S1131440DF92EF92FF920F931F93CF93DF93C7E83E
S1131450D5E00F2EF0E4EF2EF7E0FF2EF02D01E2A1
S113146016E00F2EF3E9CF2EF5E0DF2EF02D699173
S1131470799189919991F70181909190A190B1907E
S11314807F010E94FE39A50194010E946339F8018D
S113149061937193819391938F01CC15DD0539F795
S11314A0DF91CF911F910F91FF90EF90DF90CF903C
S11314B0BF90AF909F908F9008952F923F924F923C
S11314C05F926F927F928F929F92AF92BF92CF92D0
S11314D0DF92EF92FF920F931F93CF93DF93CDB7D9
S11314E0DEB7AA970FB6F894DEBF0FBECDBF7C015E
S11314F08BE3E5E4F6E0DF011D928A95E9F78BE0E2
S1131500EDEBF5E0A6E4B6E001900D928A95E1F7E3
S1131510198E212C312C00E010E01AA21E8E1BA281
S1131520CC24C394D12C0F2EF1EC8F2EF6E09F2EF9
S1131530F02D8FC29FEB9B0D9A3110F00C949214F6
S11315408F5F898FAE01465E5F4FBE01675E7F4F3E
S1131550C7010E941A2A882311F40C9494144A8C0B
S11315605B8C6C8C7D8CC301B2010E94683C0E9430
S1131570D039A62E70E080E090E00E94FE399B01F5
S1131580AC01C301B2010E94823820E030E048EC93
S113159052E40E949A3B0E94FD3B0E94D039B7E47A
S11315A0BB1629F0EDE4BE1609F42AC193C18A2DB5
S11315B090E08F35910510F00C949614FC01EC5CCE
S11315C0FF4F0C94A93C611106C0FBA1F1110C94CE
S11315D0981421E02BA33CE1A316F9F03A1538F056
S11315E084E0A81671F09AE0A91689F0F1C0A5E389
S11315F0AA16B9F1BCE5AB16D1F1EEE1AE12E8C022
S11316001EC081E0A5E4B6E08C9380E0E6C082E0F1
S1131610E5E4F6E0808380E0E0C0662321F06A30F0
S113162041F00C949A1483E0A5E4B6E08C9380E036
S1131630D7C084E0E5E4F6E0808380E0D1C066238F
S113164021F06A3041F00C949C1485E0A5E4B6E0E6
S11316508C9380E0C5C086E0E5E4F6E0808380E01A
S1131660BFC087E0A5E4B6E08C9380E0B6C06623F3
S113167021F06A3041F00C949E1488E0E5E4F6E031
S1131680808380E0ADC089E0A5E4B6E08C9380E07F
S1131690A7C0BBA1B1110C94A014E2E0EBA3F2E04B
S11316A0AF16E1F0FA1530F0AA2071F021E0A2168D
S11316B081F090C036E2A316E9F080E5A81621F186
S11316C093E0A91287C010C0A6E4B6E01C9281E0A2
S11316D084C081E0E6E4F6E080837FC082E0A6E493
S11316E0B6E08C9381E079C083E0E6E4F6E08083A1
S11316F081E073C0643111F00C94A21484E0A6E478
S1131700B6E08C9381E06CC085E0E6E4F6E080838B
S113171081E063C0F2E1AF1659F023E1A21671F043
S113172031E1A31259C0AAE4B6E01C9282E055C08C
S113173081E0EAE4F6E0808382E04FC082E0AAE43C
S1131740B6E08C934AC0BAE5AB1205C0E9E4F6E012
S1131750108283E042C081E0A9E4B6E08C9383E088
S11317603CC0BDE5AB1206C081E0E7E4F6E080834F
S113177084E033C0A7E4B6E01C9284E02EC0B4E158
S1131780AB1206C081E0E8E4F6E0808385E025C082
S1131790A8E4B6E01C9285E020C0BBE2AB1649F099
S11317A0E1E3AE120C94A414A0E5B6E01C9286E02A
S11317B017C0E5E5F6E08081A0E5B6E08C9386E00D
S11317C00FC08AEC8A0DEBE4F6E0808387E005C065
S11317D080E003C081E001C082E061110C94A61492
S11317E0960102C0220F331F8A95E2F7C901202314
S11317F03123232B11F00C94A814082B192B29C185
S113180061110C94AA148A2D90E08F31910510F087
S11318100C94AC14FC01ED56FF4F0C94A93C32E03F
S1131820A31651F08EE1A81639F0A1103EC081E054
S113183080934C0688E03EC082E080934C0688E0AA
S113184039C08091730680934F0689E033C094E0D9
S1131850A91659F0A5E0AA1669F0B3E0AB1227C0A7
S113186081E080934E068AE025C082E080934E0694
S11318708AE020C010924E068AE01CC0E8E0AE1652
S113188059F0F9E0AF1669F027E0A21212C081E026
S113189080934D068BE00EC082E080934D068BE072
S11318A009C010924D068BE005C088E003C08AE0B1
S11318B001C08BE0D60102C0AA0FBB1F8A95E2F7D4
S11318C09D0120233123232B11F00C94AE140A2BF9
S11318D01B2BBFC08B2D90E0FC01E654F109E531D0
S11318E0F10510F00C94B014EE54FF4F0C94A93C85
S11318F040925106509252066092530670925406DA
S113190020E086C0E5E5F6E0A08221E081C04092B7
S11319105606509257066092580670925906FAA1DC
S1131920F160FAA322E074C040925A0650925B061A
S113193060925C0670925D062AA122602AA323E0CD
S113194067C040925E0650925F0660926006709295
S113195061063AA134603AA324E05AC0A092620618
S113196025E056C0C301B2010E94CB3960936306DF
S113197070936406809365069093660626E048C0DB
S113198040926706509268066092690670926A06F1
S113199027E03EC040926B0650926C0660926D0642
S11319A070926E0628E034C040926F065092700622
S11319B0609271067092720629E02AC0A0927306A2
S11319C02AE026C04092740650927506609276060C
S11319D0709277068E8D81608E8F2BE019C04092B5
S11319E078065092790660927A0670927B069E8DF4
S11319F092609E8F2CE00CC040927C0650927D0633
S1131A0060927E0670927F06AE8DA460AE8F2DE04C
S1131A105601022E02C0AA0CBB1C0A94E2F7C501AF
S1131A2082219321892B09F09DC7C40102C0959599
S1131A3087952A95E2F780FF0AC020E030E0A901EB
S1131A40C301B2010E945C3988230CF48DC72A2893
S1131A503B28898DF701E80FF11DB080B1106ACDE4
S1131A6071018BA1BE8DBB2321F0811102C0E2E084
S1131A70EBA3E6FE0EC08091630690916406A091EC
S1131A806506B091660680389649A849B1050CF000
S1131A906DC780914706813031F42BA12230A1F526
S1131AA0E0FE66C731C08091BE0581112DC0E0FE05
S1131AB01BC080914806813039F50F2EF1E5CF2EF9
S1131AC0F6E0DF2EF02D23E333E34BEC51E4D601B3
S1131AD06D917D918D919C910E949A3BF60160835A
S1131AE071838283938310C08091CC059091CD053E
S1131AF0A091CE05B091CF058093510690935206E4
S1131B00A0935306B0935406F1FC10C08091C8050D
S1131B109091C905A091CA05B091CB0580936F0639
S1131B2090937006A0937106B0937206F2FE06C0FD
S1131B3080917306853008F01DC704C08091D005DC
S1131B4080937306E1FE06C080915506863008F046
S1131B5013C704C08091C70580935506809145063C
S1131B60813029F4E7FE0AC71701E89427F8809129
S1131B704A06882319F0813069F006C0F2E0FAA71A
S1131B8021E02FA31EA20BC01AA632E03FA381E0DE
S1131B908EA305C091E09AA71FA2A2E0AEA38091F4
S1131BA04806813079F50F2EF4E7CF2EF6E0DF2ECC
S1131BB0F02DE12CF12CBE8DAB2EB12CC5010E2CD9
S1131BC002C0959587950A94E2F780FF11C023E33C
S1131BD033E34BEC51E4F60160817181828193819E
S1131BE00E949A3BD6016D937D938D939C9313979A
S1131BF0BFEFEB1AFB0AE4E0CE0ED11CF3E0EF16C4
S1131C00F104E1F68CE0EDE2F6E0DE0111960190DC
S1131C100D928A95E1F707FF11C080914B0687303A
S1131C2008F0AEC69091C205891741F0BE016F5FFE
S1131C307F4F0E946D23882309F4A4C65090450663
S1131C4022E0521629F038E0531609F4E8C04DC1D9
S1131C508E8D811102C030FE97C6C101807A99270A
S1131C60892B09F493C66091670670916806809188
S1131C70690690916A060E94683C0E94D03980915E
S1131C806206823009F457C0843109F456C08130A9
S1131C9009F07EC6663008F07DC691012F75662373
S1131CA009F4C5C130FC14C090E1699FF00111240E
S1131CB0E354FA4F84899589A689B78980936B0682
S1131CC090936C06A0936D06B0936E06190104C040
S1131CD0AFE52A22E89430F8B0E16B9FB0011124FB
S1131CE063547A4F20E030E080E090E0EE8D4E2F98
S1131CF050E0F9019A01082E02C0359527950A94FF
S1131D00E2F720FD12C0DB01AE0FBF1F58960D9104
S1131D101D912D913C915B97DF01AB5BB94F9F9671
S1131D200D931D932D933C93D29701963496833053
S1131D30910501F77DC130FC2FC6673008F02EC62F
S1131D40FFE52F22662319F08FEF860F02C08091E2
S1131D504B06BE01635F7F4F0E946D23882309F405
S1131D601FC65090620601E216E00F2EF4E7AF2E74
S1131D70F6E0BF2EF02D6E012DE0C20ED11C809036
S1131D80C60530E1839E40011124E12CF12C8E8D97
S1131D90682E712CC3010E2C02C0959587950A9468
S1131DA0E2F780FF2BC094E159121EC0D5012D919A
S1131DB03D914D915C91F8016081718182819381A3
S1131DC00E948238F801E80DF91DEC54F1092081D4
S1131DD03181428153810E948238D6016D937D9373
S1131DE08D939C9313970AC0F50180819181A28100
S1131DF0B381F60180839183A283B383FFEFEF1A4B
S1131E00FF0A0C5F1F4F24E0A20EB11C34E0C30E86
S1131E10D11C83E0E816F10409F0BCCF09C19E8D02
S1131E20992309F4BFC50F2EF1E2CF2EF6E0DF2E81
S1131E30F02DDE0111964D0104E716E08091C605F0
S1131E40B0E18B9FC0011124FC01EB52FA4F5F01FA
S1131E50E12CF12CFE8D6F2E712CC3010E2C02C0CF
S1131E60959587950A94E2F780FF21C0D4012D91BE
S1131E703D914D915C91F6016081718182819381E4
S1131E800E948238D8012D913D914D915C910E9420
S1131E908238F50120813181428153810E94823848
S1131EA0D8016D937D938D939C9313970AC0F6018B
S1131EB0808D918DA28DB38DF80180839183A2834F
S1131EC0B383FFEFEF1AFF0A24E0C20ED11C34E003
S1131ED0830E911C0C5F1F4F84E0A80EB11C93E08D
S1131EE0E916F10409F0B9CF7DC5AE8DAA2309F432
S1131EF07BC0409049060F2EF1E2EF2EF6E0FF2E54
S1131F00F02D04E716E0FE0131964F018091C705DC
S1131F10F0E18F9FC00111249C012B523A4F5901CB
S1131F20C12CD12C6A2E712CC3010C2C02C09595A6
S1131F3087950A94E2F780FD0BC0F70180819181B7
S1131F40A281B381F80180839183A283B38339C0D2
S1131F50F7E05F16B1F1411023C0D70158962D91D7
S1131F603D914D915C915B97F40160817181828117
S1131F7093810E948338D8012D913D914D915C91BC
S1131F800E948338F50120813181428153810E946E
S1131F908338D8016D937D938D939C93139711C0CF
S1131FA0F7012081318142815381D8016D917D9166
S1131FB08D919C910E948338F801608371838283A0
S1131FC09383FFEFCF1ADF0A24E0E20EF11C0C5FCB
S1131FD01F4F34E0830E911C84E0A80EB11C93E0E3
S1131FE0C916D10409F0A0CFA5E05A1681F0B7E0D4
S1131FF05B16B9F0E3E05E121BC0BE01635F7F4F66
S113200086E00E946D23882309F4CEC411C0BE016A
S1132010635F7F4F87E00E946D23882309F4C6C461
S113202007C080914606823008F0C2C401C019017D
S113203010914606153049F4FE8DFF2309F48FC232
S11320402BA1213009F0B6C491C23BA1323009F072
S113205086C2111105C08E8D882309F4D4C486C2AA
S113206020E030E0A9016091510670915206809100
S11320705306909154060E945C39882309F49CC449
S1132080143028F4123060F4113029F068C214308E
S113209009F423C264C29E8D992309F4B4C466C2B0
S11320A0AE8DAA2309F48AC4FEA1EF2FF0E0FDA3AC
S11320B0ECA33FA1232F30E039A728A781E090E0CB
S11320C09C010FA002C0220F331F0A94E2F70EA056
S11320D002C0880F991F0A94E2F78901082B192B73
S11320E08A2F90E080239123892B09F469C4EE0F91
S11320F0FF1FEE0FFF1FEB5BF94FACA1BDA1AA0FB1
S1132100BB1FAA0FBB1FAF5DB94F2D913D914D91E0
S11321105C9167A570A981A992A90E9482386B017C
S11321207C01E8A5F9A5EE0FFF1FEE0FFF1FEB5B87
S1132130F94FA8A5B9A5AA0FBB1FAA0FBB1FAF5D76
S1132140B94F2D913D914D915C9167A570A981A9DD
S113215092A90E9482384B015C0130FE10C1E894C0
S113216030F82091740630917506409176065091AE
S11321707706609121067091220680912306909142
S113218024060E945C39811133C420917806309171
S1132190790640917A0650917B06609125067091EC
S11321A0260680912706909128060E945C398111A9
S11321B01FC420917C0630917D0640917E0650918B
S11321C07F066091290670912A0680912B069091D2
S11321D02C060E945C3981110BC481E219C40BE600
S11321E016E023E333E34BEC51E4D8016D917D9188
S11321F08D919C910E949A3BF80160837183828344
S1132200938340906B0650906C0660906D067090BE
S11322106E0620E030E040E850E4C301B2010E94C1
S11322209A3B9B01AC01C301B2010E949A3B2B0172
S11322303C01A7019601C701B6010E949A3B9B018C
S1132240AC01C301B2010E9482382B013C01A501FB
S11322509401C501B4010E949A3B9B01AC01C301E6
S1132260B2010E9482382B013C0120E030E0A90138
S11322700E945C3988230CF4A5C3C301B2010E94F7
S1132280273C2B013C01A5019401C701B6010E9422
S1132290F22A9B01AC01C301B20190580E94633938
S11322A02B013C0180914606833021F477FA709427
S11322B077F8709480916B0690916C06A0916D06EE
S11322C0B0916E068E8F9F8FA8A3B9A320E030E053
S11322D0A901BC01CD010E945C3988238CF477FAF2
S11322E0709477F870948E8D9F8DA8A1B9A1B05881
S11322F080936B0690936C06A0936D06B0936E0664
S11323000CA11DA1000F111F000F111F0B5B194F12
S1132310A3019201C501B4010E949A3B9B01AC0147
S1132320C701B6010E94823820E030E040E05FE35C
S11323300E949A3BD80151966D937D938D939C9303
S1132340549708A519A5000F111F000F111F0B5B4F
S1132350194FA3019201C701B6010E949A3BA5013E
S113236094010E94833820E030E040E05FE30E9463
S11323709A3BF801618B728B838B948BF7C0FAA123
S11323804F2E512C04211521012B09F41DC323EEDA
S1132390222280914806813049F50F2EF6E56F2EF2
S11323A0F6E07F2EF02D00E010E0C201002E02C006
S11323B0959587950A94E2F780FF10C023E333E3F1
S11323C04BEC51E4D3016D917D918D919C910E94D0
S11323D09A3BF30160837183828393830F5F1F4F62
S11323E0F4E06F0E711C03301105F9F608A519A568
S11323F0000F111F000F111F0B5B194FD8015196CD
S11324002D913D914D915C915497C501B4010E9469
S113241082382B013C018CA19DA1880F991F880F44
S1132420991FFC01EB5BF94F5F01218932894389D4
S11324305489C701B6010E948238A30192010E9407
S1132440F22A6B017C01D80151962D913D914D9159
S11324505C915497F50161897289838994890E94FA
S1132460F22A4B015C0160936B0670936C068093B7
S11324706D0690936E069B01AC01C701B6010E94E4
S113248082386B017C01E894F7F82AE037ED43EADF
S11324905BE3C701B6010E945F3B18160CF066C0EF
S11324A020E030E040E05FE3C701B6010E945F3BFB
S11324B018160CF48BC22FE632E143E85AE3C50147
S11324C0B4010E949A3B9B01AC01C701B6010E9472
S11324D05F3B18160CF47CC249C0FE8DFF2309F43F
S11324E079C2209174063091750640917606509118
S11324F077066091210670912206809123069091BF
S113250024060E945C39811179C2209178063091A9
S1132510790640917A0650917B0660912506709168
S1132520260680912706909128060E945C39811125
S113253065C220917C0630917D0640917E065091C3
S11325407F066091290670912A0680912B0690914E
S11325502C060E945C39811151C281E259C22BA11F
S1132560211104C0C1018E7B997F03C0C1018E7B00
S1132570917C892B09F030C2809147068093BE0577
S11325808091510690915206A0915306B091540641
S11325908093CC059093CD05A093CE05B093CF0541
S11325A0C0906F06D0907006E0907106F0907206AD
S11325B0A70196016091C8057091C9058091CA056B
S11325C09091CB050E945C398823D1F0C092C80554
S11325D0D092C905E092CA05F092CB058091C50559
S11325E0882371F00E9491174091C8055091C90544
S11325F06091CA057091CB058091C5050E942C1588
S1132600809173069091D005981721F08093D0059E
S11326100E9480389091C60580914F06981759F012
S113262081E080934C060E94911780914F0680931D
S1132630C6050E94813880914E069091C505981771
S113264091F005EC15E0D8018C930E94911740910C
S1132650C8055091C9056091CA057091CB05F80170
S113266080810E942C1580914D069091C405981785
S113267051F004EC15E0D8018C930E949117F801F5
S113268080810E94661580914506813051F46091E5
S11326906706709168068091690690916A060E94A7
S11326A0BA0880914A068093C105809148068093B8
S11326B0BF05809155069091C70598138093C7056F
S11326C080914B069091C205981759F08093C205EA
S11326D08CE0FE013196ADE2B6E001900D928A9550
S11326E0E1F7809149068093C0058091450690E00A
S11326F0FC013297E830F10508F094C0E953FF4F2C
S11327000C94A93C609167067091680680916906F3
S113271090916A060E94683C0E94D039862F90915D
S11327206206923041F1943131F1913009F07AC06E
S1132730F0E16F9F90011124F901E354FA4F4091A5
S11327406B0650916C0660916D0670916E06448B19
S1132750558B668B778BD901AB52BA4F9CE0E4E77B
S1132760F6E001900D929A95E1F7B9016F527A4F14
S11327700E945E2257C0882319F01FEF180F02C071
S11327801091C205BE01635F7F4F812F0E945422C6
S11327908091C205811346C08CE0FE013D96ADE2F6
S11327A0B6E001900D928A95E1F73CC02BA122235B
S11327B049F020E040E050E060E87FEB84E796E0F9
S11327C00E94620520E040E050E060E87FEBCE012B
S11327D00D960E9462058CE0FE013D96A1E2B6E0F2
S11327E001900D928A95E1F71DC061E276E086E0E2
S11327F00E94542217C061E276E087E00E945422CE
S113280011C08CE0E4E7F6E0A9E3B6E001900D9294
S11328108A95E1F707C08CE0E9E3F6E0DF011D9259
S11328208A95E9F7809146068093BD05853009F4C1
S113283062C0BBA1B23009F05EC0843038F482308B
S113284008F5882331F0813071F04CC08430E1F117
S113285049C020E040E050E060E87FEB84E796E088
S11328600E9462053FC04091CC055091CD05609116
S1132870CE057091CF052091BE0584E796E00E94B5
S1132880620530C0C090CC05D090CD05E090CE0557
S1132890F090CF0500916B0610916C0620916D06A7
S11328A030916E06EAA5EF93FFA1FF938EA0A0904E
S11328B0BE0546E556E064E776E081E296E00E94D4
S11328C09F050F900F900EC04091CC055091CD05FF
S11328D06091CE057091CF052091BE0584E796E006
S11328E00E943A098CE0E4E7F6E0A1E2B6E0019048
S11328F00D928A95E1F780914C068093C305882355
S113290009F46CC00E949117109293058091C3053D
S1132910823021F40E94D60980E07AC01092C30567
S113292080E076C081E074C082E072C084E170C04F
S113293088E16EC084E16CC084E16AC084E168C04F
S113294088E166C084E164C084E162C087E160C05C
S113295085E15EC087E15CC084E15AC085E158C06E
S113296084E156C089E154C084E052C08BE150C078
S113297086E14EC087E24CC087E24AC08CE148C081
S11329808DE146C087E044C08AE142C08CE140C08A
S113299084E13EC087E23CC084E13AC08DE138C0A6
S11329A087E036C08AE134C087E032C087E030C0B7
S11329B08EE12EC08FE12CC086E12AC08AE128C0B6
S11329C080E226C082E224C083E222C081E220C0E9
S11329D081E21EC08AE11CC085E21AC080E018C0F2
S11329E084E216C010914606153009F02ECB28CB90
S11329F080914806813009F004CCF1CB0E948E2FDF
S1132A008111EECFB3CDC1018E7B997F1BA2B1CDD5
S1132A10AA960FB6F894DEBF0FBECDBFDF91CF915B
S1132A201F910F91FF90EF90DF90CF90BF90AF90E8
S1132A309F908F907F906F905F904F903F902F90DA
S1132A4008951092B30561E070E08CE50E949F3711
S1132A5008950E9421150895CF92DF92EF92FF927C
S1132A60382FCB01BA0120918405223021F1311194
S1132A7003C00E9421151FC020E030E048E852E462
S1132A800E9463390E94393A6B017C0120E030E0F6
S1132A904AEF52E40E945F3B18162CF0C701B601BE
S1132AA00E94D03901C06DE76093B30561E070E026
S1132AB08CE50E949F37FF90EF90DF90CF900895B0
S1132AC01092B30508951092B3050895909184056A
S1132AD0923011F08093B30508959091080180918C
S1132AE00901891710F0891B08958058891B0895DE
S1132AF0E0ECF0E08081826080831092C50080E188
S1132B008093C400E1ECF0E0808180618083808167
S1132B108860808380818068808308953091070174
S1132B2021E0230F203431F404C0908194FF04C0C9
S1132B30089520E0E5E8F5E0909106019217A9F3E5
S1132B40E32FF0E0E058F94F808320930701E1EC94
S1132B50F0E080818062808308951F920F920FB607
S1132B600F9211248F939F93EF93FF93809106010B
S1132B70E82FF0E0E058F94F90819093C6008F5F02
S1132B80803409F480E08093060190910701891351
S1132B9005C0E1ECF0E080818F7D8083FF91EF91AF
S1132BA09F918F910F900FBE0F901F901895909149
S1132BB0080180910901891761F0E92FF0E0E054E0
S1132BC0F94F80819F5F903809F490E09093080159
S1132BD008958FEF08951F920F920FB60F9211244C
S1132BE02F933F934F935F936F937F938F939F9311
S1132BF0AF93BF93EF93FF938091C6008132D9F0D6
S1132C0018F4883109F123C08F3319F08E3751F04D
S1132C101EC08FB7F894E5E8F5E090819160908349
S1132C208FBF26C08FB7F894E5E8F5E090819260F5
S1132C3090838FBF1DC08FB7F894E5E8F5E09081CD
S1132C40986090838FBF14C00E94D60911C0E09190
S1132C50090191E09E0F903809F490E02091080159
S1132C60921731F0F0E0E054F94F8083909309011A
S1132C70FF91EF91BF91AF919F918F917F916F9150
S1132C805F914F913F912F910F900FBE0F901F9026
S1132C90189580910901809308010895CF93C091FC
S1132CA08505CC2309F487C08C2F807641F181E01F
S1132CB080938405C6FF18C0C5FF04C08FEF0E942F
S1132CC0193003C08DEF0E94193081E00E943E301C
S1132CD08FB7F894E5E8F5E090819F7E90838FBFED
S1132CE0808184FFFDCF03C08EEF0E9419308FB71F
S1132CF0F894E5E8F5E090819F7990838FBFC4FF55
S1132D0004C081E0809383055CC0C0FF0AC00E94B8
S1132D1012348FB7F894E5E8F5E090819E7F9083B4
S1132D208FBFC3FF15C080918405803149F480E2D0
S1132D30809384050E94C71A0E94E91A1092930591
S1132D408FB7F894E5E8F5E09081977F90838FBF83
S1132D50C1FF1DC080918405883089F480E180938F
S1132D6084050E94E91A0E94B91780917D0781FFAA
S1132D7004C081E08093930502C0109293058FB73D
S1132D80F894E5E8F5E090819D7F90838FBFC2FFC2
S1132D9012C00E94C126892B21F088E0809384050B
S1132DA002C0109284058FB7F894E5E8F5E09081AD
S1132DB09B7F90838FBF80918405847311F00E9460
S1132DC0E91ACF91089580919305882341F08FB734
S1132DD0F894E5E8F5E09081926090838FBF0895C0
S1132DE0AF92BF92CF92DF92EF92FF920F931F9315
S1132DF0CF93DF930E946F3080918405813099F4E2
S1132E0082E00E943E30A12CB12CC3E8D5E0D12C45
S1132E100AE011E00F2EF4E8EF2EF5E0FF2EF02D7E
S1132E20CC24C39467C0109284058AE091E00E9488
S1132E307235E9CF8A3011F08D3081F5EA2DF0E05A
S1132E40E65FFE4F10820E944E16888181114CC0AD
S1132E50F8018081811106C08D2D0E94AD2FAD2C0B
S1132E60BD2C48C0843241F4C8010E9493350E94AD
S1132E70AD2FAD2CBD2C3EC0F7018081813031F4E3
S1132E8089E00E94AD2FAD2CBD2C34C0C8010E9436
S1132E905D0A0E94AD2FAD2CBD2C2CC0BB2019F0B7
S1132EA0893241F524C0813228F18F3219F18832F8
S1132EB001F1FEE4FA1528F48BE00E94AD2FAD2C4D
S1132EC019C09FE9980F9A3140F4AA2DB0E0A65F8B
S1132ED0BE4F80528C93A3940DC0AA2DB0E0A65F80
S1132EE0BE4F8C93A39406C0AD2CBD2C03C0BD2C47
S1132EF001C0BC2C0E94D7158F3F09F09BCF0E94C4
S1132F00E3160E944E1688818823A1F3DF91CF91A6
S1132F101F910F91FF90EF90DF90CF90BF90AF90F3
S1132F2008950F931F93CF93DF938091840580318D
S1132F3021F481E0809393050BC0883049F40E940A
S1132F40E31606C00E944E168881882329F00CC01F
S1132F5004E815E0C3E8D5E00E94C126892B91F767
S1132F60F8018081803171F3DF91CF911F910F912E
S1132F70089580917D0782FF02C0289A01C0289895
S1132F80809184058471A1F080918A0180939E01CF
S1132F9080918B0180939D0180917007880F8450EC
S1132FA0819580939C01EFE6F0E0808182608083CC
S1132FB00895EFE6F0E080818D7F8083E1E8F0E022
S1132FC08081887F8160808310928901809173075A
S1132FD08F3F21F49091850595FF09C09091840558
S1132FE0943039F090E00E94E62A81E003C080E04A
S1132FF001C080E090917D0792FF02C091E0892793
S1133000882311F0289A0895289808951F920F9202
S11330100FB60F9211242F933F934F935F936F93A7
S11330207F938F939F93AF93BF93CF93DF93EF934C
S1133030FF93809189018111ECC18BB190919E0124
S1133040907E8F71892B8BB98BB1837E90919D017A
S1133050892B8BB980919C0186BD82E085BD81E07E
S11330608093890178948091B0019091B101892B6A
S113307009F0A9C080918E0190918D01981709F4EF
S113308097C080918E0190E0FC01EE0FFF1F8E0F20
S11330909F1FFC01EE0FFF1FEE54FE4FF093B10192
S11330A0E093B00183819481909389008093880098
S11330B0808191819093AC018093AB01A281809136
S11330C0AD018A1771F1A093AD0181E1A89FD001F0
S11330D01124AA52BE4FB093AF01A093AE011D9626
S11330E08D919D910D90BC91A02DB695A795979526
S11330F0879580938F0190939001A0939101B09351
S113310092018093930190939401A0939501B093BD
S113311096018093970190939801A0939901B0939D
S11331209A01C091AE01D091AF0190918A0188813A
S1133130892780939E0189819A81AB81BC81058016
S113314004C0B695A795979587950A94D2F780936E
S11331509F019093A001A093A101B093A2018D813E
S11331609E81AF81B885058004C0B695A7959795D3
S113317087950A94D2F78093A3019093A401A09316
S1133180A501B093A60189859A85AB85BC85058088
S113319004C0B695A795979587950A94D2F780931E
S11331A0A7019093A801A093A901B093AA010BC011
S11331B00E94D9178FB7F894E5E8F5E09081946000
S11331C090838FBF26C10E94942F10929D01EFE837
S11331D0F1E040919F015091A0016091A101709193
S11331E0A20180819181A281B381840F951FA61FC2
S11331F0B71F80839183A283B383E091AE01F091E2
S1133200AF014585568567857089481759076A0750
S11332107B0788F524E020939D01458556856785C5
S11332207089841B950BA60BB70B80938F01909329
S11332309001A0939101B0939201808185FF0EC00B
S1133240C7E8D5E088819981AA81BB810197A1094A
S1133250B10988839983AA83BB830DC0C7E8D5E0ED
S113326088819981AA81BB810196A11DB11D8883A2
S11332709983AA83BB83C3E9D1E04091A301509110
S1133280A4016091A5017091A60188819981AA8108
S1133290BB81840F951FA61FB71F88839983AA83B8
S11332A0BB834585568567857089481759076A0722
S11332B07B0798F5CDE9D1E02881286028834585EE
S11332C0568567857089841B950BA60BB70B809375
S11332D0930190939401A0939501B09396018081FA
S11332E086FF0EC0CBE8D5E088819981AA81BB8195
S11332F00197A109B10988839983AA83BB830DC06F
S1133300CBE8D5E088819981AA81BB810196A11D72
S1133310B11D88839983AA83BB83C7E9D1E0409117
S1133320A7015091A8016091A9017091AA01888117
S11333309981AA81BB81840F951FA61FB71F88831B
S11333409983AA83BB834585568567857089481709
S113335059076A077B0798F5CDE9D1E028812061F8
S113336028834585568567857089841B950BA60B34
S1133370B70B8093970190939801A0939901B09310
S11333809A018081882374F4EFE8F5E080819181CB
S1133390A281B3810197A109B10980839183A2839A
S11333A0B3830DC0EFE8F5E080819181A281B38100
S11333B00196A11DB11D80839183A283B383809163
S11333C08405843039F4EDE9F1E09091860580813B
S11333D089238083EBEAF1E08081918101979183D5
S11333E08083892B69F41092B1011092B00180910D
S11333F08E018F5F80938E01863011F410928E01BE
S1133400EDE9F1E090918B0180818927808310920E
S11334108901FF91EF91DF91CF91BF91AF919F917E
S11334208F917F916F915F914F913F912F910F9069
S11334300FBE0F901F9018951F920F920FB60F9208
S113344011248F939F938BB190918B019C71837EF8
S1133450892B8BB915BC9F918F910F900FBE0F9044
S11334601F901895CF92DF92EF92FF920F931F93C4
S1133470CF93DF930E94D9178BE2EAE5F1E0DF01F5
S11334801D928A95E9F783E2EFE8F1E0DF011D92EE
S11334908A95E9F7109288011092870110928E01A3
S11334A010928D0181E080938C0110928901109219
S11334B08B0110928A01C0E0D0E00F2EF1E7EF2ECD
S11334C0F7E0FF2EF02D02E717E0CC2EDC2EF701FB
S11334D0408150E00C2E02C0559547950A94E2F7BE
S11334E040FF08C08C2F0E944B2590918B01892BA3
S11334F080938B01D8012C9130E002C0359527953B
S1133500DA94E2F720FF08C08C2D0E945525909193
S11335108A01892B80938A012196C330D105A9F6AB
S11335208BB1837E90918B01892B8BB98BB18F7179
S113353090918A01892B8BB9DF91CF911F910F91C3
S1133540FF90EF90DF90CF9008958AB18C618AB993
S1133550209A8AB1806E8AB9E1E8F0E080818F7E9A
S11335608083808188608083E0E8F0E080818C7FC4
S1133570808380818F708083EEE6F0E08081887F95
S1133580808314BC15BC8081816080830895CF93AF
S1133590DF93C0918701D09188012097B9F081E031
S11335A080935B016091710170917201809173014C
S11335B0909174019B01AC010E949A3B698B7A8BB8
S11335C08B8B9C8B1092880110928701DF91CF9195
S11335D008952F923F924F925F926F927F928F92B3
S11335E09F92AF92BF92CF92DF92EF92FF920F938E
S11335F01F93CF93DF93CDB7DEB7E6970FB6F8945A
S1133600DEBF0FBECDBF64C6809187019091880153
S1133610892B09F06CC20E94C1268C019093880109
S113362080938701009709F459C6ABE5B1E08C910A
S1133630882311F01C92DCC0EAE5F1E080818F5F01
S1133640853011F0808303C0AAE5B1E01C92AAE59D
S1133650B1E0EC91B1E1EB9FF0011124EA52FE4F8D
S1133660F0938601E0938501D8018C9180831196B3
S11336704D915D916D917C911497DB01CA01880F86
S1133680991FAA1FBB1F880F991FAA1FBB1F880F52
S1133690991FAA1FBB1F81839283A383B483D8017C
S11336A015964D915D916D917C911897DB01CA013E
S11336B0880F991FAA1FBB1F880F991FAA1FBB1F22
S11336C0880F991FAA1FBB1F85839683A783B08782
S11336D0D80119964D915D916D917C911C97DB01F8
S11336E0CA01880F991FAA1FBB1F880F991FAA1F01
S11336F0BB1F880F991FAA1FBB1F81879287A387AF
S1133700B487D8011D964D915D916D917C91509730
S1133710440F551F661F771F440F551F661F771FE1
S1133720440F551F661F771F458756876787708B21
S11337301D966D917D918D919C9150970E94FC39BD
S1133740ECE5F1E06083718382839383D8019596DD
S11337502D913D914D915C9198970E9463399B0105
S1133760AC01E0E6F1E0608371838283938360E0DF
S113377070E080EA9FE30E94633960936401709370
S1133780650180936601909367011092680110921D
S1133790690110926A0110926B01A4E8B5E08C9162
S11337A08032B9F4E9E7F1E060817181828193812B
S11337B0A1E7B1E06D937D938D939C9313979B0147
S11337C0AC010E949A3BF801618B728B838B948BC2
S11337D00FC0D80151966D917D918D919C91549714
S11337E00E94273CE1E7F1E0608371838283938345
S11337F0ADE6B1E01D921D921D921C9213970091AB
S1133800870110918801F801C1A0D2A0E3A0F4A01F
S1133810A701960160E070E080E09FE30E946339B5
S11338202B013C01A4E8B5E08C91803209F057C02B
S113383082E0ECE6F1E08083D80195968D909D902E
S1133840AD90BC90989751962D913D914D915C917E
S1133850549729833A834B835C83A3019201698142
S11338607A818B819C810E949A3B9B01AC01C501AA
S1133870B4010E9482382B013C0120E030E0A90110
S11338800E945C398823ECF4A7019601C701B601B4
S11338900E9483389B01AC01C501B4010E949A3B8C
S11338A09B01AC0169817A818B819C810E94823861
S11338B00E94273CE9E7F1E060837183828393836C
S11338C016C1ADE6B1E04D925D926D927C92139774
S11338D0E9E7F1E0108211821282138208C1ACE69A
S11338E0B1E01C92F80185A196A1A7A1B0A5EDE7CE
S11338F0F1E080839183A283B3830E94D1266B017C
S11339007C01A9E7B1E06D937D938D939C9313970C
S11339109B01AC010E949A3B69837A838B839C83CD
S11339200091870110918801D80195962D913D91C0
S11339304D915C9198972D833E834F8358879B01CB
S1133940AC0151966D917D918D919C9154970E94FB
S11339508238A30192010E949A3B9B01AC016D81C4
S11339607E818F8198850E94833820E030E040E09A
S11339705FE30E949A3B4B015C0120E030E0A90127
S11339800E945F3B18160CF0A5C0A50194016D813F
S11339907E818F8198850E945F3B18160CF089C048
S11339A029813A814B815C81F801658D768D878D03
S11339B090A10E948238A30192010E949A3B9B012C
S11339C0AC01A1E8B1E06D937D938D939C93139723
S11339D0C501B4010E945F3B18160CF040C0F80109
S11339E0658D768D878D90A10E94273CA5E7B1E077
S11339F06D937D938D939C931397F801818892889E
S1133A00A388B488C58CD68CE78CF0A0A701960156
S1133A10C501B4010E945C39811105C081E0ACE6A6
S1133A20B1E08C9364C0A5019401C701B6010E9462
S1133A308238A30192010E949A3B9B01AC01EDE7FD
S1133A40F1E060817181828193810E948238ADE7C7
S1133A50B1E06D937D938D939C93139748C0EDE7EC
S1133A60F1E080829182A282B382A1E8B1E08D92DA
S1133A709D92AD92BC921397F80161A172A183A1AA
S1133A8094A19B01AC010E948338A50194010E947A
S1133A909A3B29813A814B815C810E9483380E9440
S1133AA0273CA5E7B1E06D937D938D939C93139789
S1133AB01EC082E0ECE6F1E08083E1E7F1E0808182
S1133AC09181A281B381E5E7F1E080839183A283B0
S1133AD0B3830DC0ADE7B1E01D921D921D921C92FF
S1133AE01397E5E7F1E0C082D182E282F38280910C
S1133AF08D0190E09C01220F331F820F931F880FCA
S1133B00991F9C012E543E4F3CA72BA7AAE5B1E078
S1133B108C91F901828320918701309188013E8B39
S1133B202D8BD9019596BC91BDA7F901F6A1FEA7ED
S1133B30D9019796BC91BFA7F901F0A5F8AB2091E4
S1133B4064013091650140916601509167016DA552
S1133B507EA58B2F9F2F0E9482386BA37CA38DA3FD
S1133B609EA320E030E0A9010E945C39882324F45C
S1133B701BA21CA21DA21EA2ADE7B1E0BC91BF8B8B
S1133B80E0917E01E88FF0917F01F98F209180010F
S1133B902A8FA5E7B1E0BC91BB8FE0917601EC8F51
S1133BA0F0917701FD8F209178012E8FA1E8B1E08B
S1133BB0BC91BF8FE0918201E8A3F0918301F9A346
S1133BC0209184012AA3ADE6B1E0BC91B98BE091C8
S1133BD06E01EA8BF0916F01FB8B209170012C8BAD
S1133BE0A9E7B1E08D919D910D90BC91A02D89AB79
S1133BF09AABABABBCABE1E7F1E0F081FD87209180
S1133C0072012E87309173013F8740917401488B74
S1133C10ACE6B1E0BC91B987EDA5FEA5FFA30FA565
S1133C2018A90F2EFEE32F2EF02D0F2EF3EC6F2E7E
S1133C30F02D0F2EFEE27F2EF02D0F2EF9E33F2EF6
S1133C40F02DC12CD12C76010F2EFEE34F2EF02D3A
S1133C500F2EF3EC5F2EF02D2EE2298339E33D8302
S1133C60EDABFEAB4985442321F0413009F48AC011
S1133C70C9C0AD89BE8991962D913D914D915C91BC
S1133C809497622D762D872D932D0E949A3B4B019C
S1133C905C0120E030E040E05FE30E949A3B2D8528
S1133CA03E854F8558890E948338222D362D472D15
S1133CB0532D0E949A3B9B01AC016DA97EA9802FD4
S1133CC0912F0E9482386DAB7EAB082F192F2F895C
S1133CD0388D498D5A8D912F0E945C3988230CF0C0
S1133CE044C02F89388D498D5A8D6DA57EA58FA529
S1133CF098A90E9482389B01AC010E9483384B0131
S1133D005C012D853E854F8558896B8D7C8D8D8D0D
S1133D109E8D0E9483389B01AC01C501B4010E94B1
S1133D206339262E672E782E392E2F8D38A149A17E
S1133D305AA16F89788D898D9A8D0E945C39882368
S1133D4019F0B1E0B98702C0E2E0E987FB8DFD8795
S1133D502C8D2E873D8D3F874E8D488B5F895DABC3
S1133D60888D8EAB098D1A8DD1C02D853E854F85EA
S1133D705889C501B4010E9483386D877E878F8777
S1133D80988BC4C02B8D3C8D4D8D5E8D622D762D10
S1133D90872D932D0E949A3B9B01AC016DA97EA9AE
S1133DA0802F912F0E948238A62EB72E882E992E0E
S1133DB0262F372F482F592F6F8D78A189A19AA1CB
S1133DC00E945F3B18160CF09DC02F8D38A149A1AD
S1133DD05AA16DA97EA9802F912F0E9482382B8D24
S1133DE03C8D4D8D5E8D0E946339262E672E782E74
S1133DF0392E9F8D9DABA8A1AEAB09A11AA1B2E04B
S1133E00B98784C0ED89FE8921A132A143A154A1BF
S1133E10622D762D872D932D0E949A3B4B015C01D8
S1133E209B01AC016D857E858F8598890E945F3BDF
S1133E301816ECF520E030E040E05FE3C501B40182
S1133E400E949A3B9B01AC016D857E858F85988984
S1133E500E948238222D362D472D532D0E949A3BE5
S1133E609B01AC016DA97EA9802F912F0E948238FD
S1133E706FA378A789A79AA729893A894B895C896E
S1133E800E945F3B18169CF4A50194016D857E8504
S1133E908F8598890E9482386D877E878F87988B5B
S1133EA0FFA1FDAB28A52EAB09A51AA52FC0298912
S1133EB03A894B895C896DA97EA9802F912F0E9434
S1133EC082389B01AC010E9483384B015C0129A913
S1133ED03AA94BA95CA96D857E858F8598890E9436
S1133EE083389B01AC01C501B4010E946339262EBD
S1133EF0672E782E392E39893DAB4A894EAB0B8912
S1133F001C8904C0ADAABEAA082D192D222D362D58
S1133F10472D532DC701B6010E9483386B017C01E4
S1133F209B01AC01642D752D89819D810E945F3BAD
S1133F3018166CF4A7019601642D752D89819D8155
S1133F400E948238262E672E782E392E33C02BA15C
S1133F503CA14DA15EA16DA97EA9802F912F0E9445
S1133F605F3B18168CF08EA98FA38D859E85AF8537
S1133F70B889E1E7F1E080839183A283B383E98583
S1133F80ACE6B1E0EC9333C02EE333EC4EE259E3FC
S1133F90642D752D89819D810E948338462E572E6C
S1133FA089839D83A70196010E948238262E672E5D
S1133FB0782E392E29893A894B895C896DA97EA985
S1133FC0802F912F0E945F3B18160CF44BCE8EA9C4
S1133FD08FA38D859E85AF85B889E1E7F1E0808365
S1133FE09183A283B383E985ACE6B1E0EC93A0E6C8
S1133FF0B1E02D913D914D915C9129873A874B8792
S11340005C872DA93FA1402F512F69857A858B8527
S11340109C850E949A3B2B013C010E9449396D8387
S11340207E838F839887ECE5F1E0608171818281E2
S113403093810E9449394B015C012D813E814F815E
S113404058850E9482380E94D03969837A838B8391
S11340509C83E981FA81ABA5BCA5ED93FC933097D1
S1134060A9F5A4E8B5E08C91803281F54D805E809D
S11340706F80788410927101109272011092730112
S113408010927401109268011092690110926A01F1
S113409010926B0140925C0150925D0160925E014E
S11340A070925F0129853A854B855C85C301B20115
S11340B00E946339ED89FE8965A376A387A390A73F
S11340C00E94112A88E08093840508C10F2EF8E627
S11340D02F2EF1E03F2EF02DD1012D913D914D91E8
S11340E05C91C701B6010E9483386B017C01A30176
S11340F09201C501B4010E9482389B01AC01C70141
S1134100B6010E9463396B017C01A30192016D81A8
S11341107E818F8198850E948238A70196010E9432
S11341209A3BF101608371838283938320EC31EEA7
S113413044E65EE4C701B6010E949A3B0E944939F5
S11341400E94D039603DF7E07F078105910528F48E
S1134150ABA5BCA515961C9231C0603ABFE07B07A5
S11341608105910528F421E0EBA5FCA5258310C069
S11341706034FFE17F078105910530F422E0ABA5AF
S1134180BCA515962C9304C023E0EBA5FCA52583C0
S1134190ABA5BCA515962C911597022E04C0969537
S11341A08795779567950A94D2F7E981FA8102C0D9
S11341B0EE0FFF1F2A95E2F7ED93FC93611571054D
S11341C0F1E08F07910538F4ABA5BCA514967C9358
S11341D06E93139706C08FEF9FEFEBA5FCA5948316
S11341E0838380918C0180938D018F5F863019F0D9
S11341F080938C0102C010928C012DA93FA1402F05
S1134200512FADE6B1E06D917D918D919C910E940D
S11342105C3988239CF4E0918701F09188018DA991
S11342209FA1A02FB12F85A396A3A7A3B0A7ECE5C8
S1134230F1E040825182628273824AC020E030E021
S1134240A9016DA97FA1802F912F0E945F3B1816B1
S1134250CCF54D805E806F8078841092710110924D
S113426072011092730110927401109268011092FD
S1134270690110926A0110926B0140925C015092A4
S11342805D0160925E0170925F010091870110915F
S11342908801209160013091610140916201509147
S11342A06301C301B2010E946339D80195966D93ED
S11342B07D938D939C9398970E94112A88E0809314
S11342C084050CC010928801109287010E94AD26CB
S11342D090918E0180918C01981396C9E6960FB641
S11342E0F894DEBF0FBECDBFDF91CF911F910F9128
S11342F0FF90EF90DF90CF90BF90AF909F908F9002
S11343007F906F905F904F903F902F900895F99910
S1134310FECF92BD81BD81E08FBB80B50895F89436
S1134320F999FECF92BD81BD81E08FBB80B5862710
S1134330982F962359F06F3F29F060BD84E08FBB1E
S1134340F99A0AC084E18FBBF99A06C0882321F048
S113435060BD84E28FBBF99A789408958F929F92FE
S1134360AF92BF92CF92DF92EF92FF920F931F937F
S1134370CF93DF936C018B015A014115510511F163
S1134380EA01912C88248394911009C0692D772720
S113439067FD7095972E991C9924991C01C0982C3F
S11343A0F80161918F01960E7C01FFEFEF1AFF0A6D
S11343B00E948F212197209711F0C701E5CFCA0CE5
S11343C0DB1C01C0912C692DC6010E948F21DF9155
S11343D0CF911F910F91FF90EF90DF90CF90BF90FE
S11343E0AF909F908F9008958F929F92AF92BF92BB
S11343F0CF92DF92EF92FF920F931F93CF93DF93AD
S11344006B015A014115510529F1082F192FEA01B1
S1134410CB01912C882483947C012FEFE21AF20AB9
S11344200E948721911009C0292D332727FD30953B
S1134430932E991C9924991C01C0982C980EF8016C
S113444081938F012197209711F0C701E5CFCA0C02
S1134450DB1C01C0912CC6010E94872141E050E081
S1134460891511F040E050E0CA01DF91CF911F910E
S11344700F91FF90EF90DF90CF90BF90AF909F90FF
S11344808F90089521E5829FC001112440E550E0FA
S11344909D5F0E94AE21089540E550E0BC0180EE8E
S11344A093E00E94AE2108952DE0829FC001112463
S11344B04CE050E09E5F0E94AE21089521E1829F6E
S11344C0C001112440E150E080589E4F0E94AE216B
S11344D0089569E080E090E00E948F214DE450E06F
S11344E060E477E081E090E00E94AE2108958AE0E4
S11344F08093700789E1809373071092710786E0B7
S11345008093720783E0809374078AE097EDA3EAAF
S1134510BCE38093750790937607A0937707B093D5
S113452078078FE692E1A3E0BBE380937907909349
S11345307A07A0937B07B0937C0710927E0780E0F4
S113454090E0A8ECB1E480937F0790938007A09358
S11345508107B093820780E090E0AAEFB3E48093F0
S1134560830790938407A0938507B09386072AEF67
S113457030E0309388072093870740E050E060E8FC
S11345807FE34093890750938A0760938B07709366
S11345908C0722E020937D0740E050E06AE773E453
S11345A04093400750934107609342077093430739
S11345B04093440750934507609346077093470719
S11345C0409348075093490760934A0770934B07F9
S11345D080934C0790934D07A0934E07B0934F07D9
S11345E08093500790935107A0935207B0935307B9
S11345F08093540790935507A0935607B093570799
S113460080E090EAACE0B7E48093580790935907B0
S1134610A0935A07B0935B0780935C0790935D0760
S1134620A0935E07B0935F07809360079093610740
S1134630A0936207B093630780E090E0A8E4B3EC32
S11346408093640790936507A0936607B093670708
S11346508093680790936907A0936A07B0936B07E8
S113466080936C0790936D07A0936E07B0936F07C8
S11346700E94692208951F93CF93DF93182FEB01B3
S113468081E5189FB00111247D5F40E550E0CE0123
S11346900E94F421892B39F41882BE01812F0E94D3
S11346A0422280E001C081E0DF91CF911F91089503
S11346B0CF93DF93EC0140E550E060EE73E00E949D
S11346C0F421892B31F41882CE010E944C2280E01F
S11346D001C081E0DF91CF9108951F93CF93DF93C1
S11346E0182FEB018DE0189FB00111247E5F4CE080
S11346F050E0CE010E94F421892B59F48CE0FE0194
S113470011928A95E9F7BE01812F0E94542280E01C
S113471001C081E0DF91CF911F9108951F93CF9342
S1134720DF93182FEB0181E1189FB0011124605829
S11347307E4F40E150E0CE010E94F421892B41F4E8
S113474019821882BE01812F0E945E2280E001C07E
S113475081E0DF91CF911F91089580E090E00E9465
S11347608721893069F44DE450E061E070E080E431
S113477097E00E94F42121E0892B19F420E001C084
S113478020E0822F0895CF92DF92EF92FF92CF9391
S1134790DF93D82F6A017B0120E030E0A901C70133
S11347A0B6010E945C3988230CF4E6C0D436A0F02C
S11347B0ECE9ED0FE33020F0EA3008F0EBC0DEC0A6
S11347C0F0E0EE0FFF1FEE0FFF1FE05CF84FC0821A
S11347D0D182E282F382CCC0C701B6010E94683C58
S11347E00E94D0398D2F90E08C31910508F0C8C01B
S11347F0FC01E153FF4F0C94A93C633008F4C2C0A0
S113480060937007B5C060937307B2C0609371077B
S1134810AFC060937207ACC0662331F0EDE7F7E0F8
S1134820808184608083A4C0EDE7F7E080818B7F82
S113483080839EC0662331F0EDE7F7E080818064D9
S1134840808396C0EDE7F7E080818F7B808390C002
S1134850662331F0EDE7F7E080818068808388C0CB
S1134860EDE7F7E080818F77808382C060937407DF
S1134870C0927507D0927607E0927707F092780796
S113488077C0C0927907D0927A07E0927B07F092C2
S11348907C076EC0662331F0EDE7F7E0808181602C
S11348A0808366C0EDE7F7E080818E7F808360C0FF
S11348B0662331F0EDE7F7E080818260808358C0A1
S11348C0EDE7F7E080818D7F808352C0662341F05D
S11348D080917D0784FF58C0806280937D0748C023
S11348E0EDE7F7E080818F7D808342C0662331F05D
S11348F0EDE7F7E080818860808305C0EDE7F7E0AD
S11349008081877F80830E94242B32C0662331F00C
S1134910EDE7F7E08081806180832AC0EDE7F7E06E
S113492080818F7C808324C060937E0721C0C092E5
S11349307F07D0928007E0928107F092820718C027
S1134940C0928307D0928407E0928507F09286078D
S11349500FC0862F90E0909388078093870708C044
S1134960C0928907D0928A07E0928B07F0928C0755
S11349700E94692280E056C084E054C083E052C0A3
S113498083E050C086E04EC08AE04CC083E04AC059
S113499083E048C0E2E9ED0FE33068F0EA30B0F3B9
S11349A0C8E8CD0FC33098F0CA3090F3D258D33052
S11349B040F183E037C0F0E0EE0FFF1FEE0FFF1F62
S11349C0E45BF84FC082D182E282F382D1CFD0E09F
S11349D0CC0FDD1FCC0FDD1FC85AD84F20E030E0CC
S11349E040E752E4C701B6010E949A3B20E030E060
S11349F040E752E40E949A3B688379838A839B83CD
S1134A00B7CFED2FF0E0EE0FFF1FEE0FFF1FEC59B5
S1134A10F84FF7FAF094F7F8F094C082D182E2826A
S1134A20F382A6CFDF91CF91FF90EF90DF90CF90EC
S1134A3008951F93CF93DF93CDB7DEB72C970FB6AE
S1134A40F894DEBF0FBECDBF0E94AD23811117C005
S1134A5087E00E94AD2F0E9477220E9479300FC018
S1134A60BE016F5F7F4F812F0E946D23811103C0B0
S1134A7087E00E94AD2F1F5F183091F702C010E04D
S1134A80EFCF2C960FB6F894DEBF0FBECDBFDF91EB
S1134A90CF911F910895882321F0813021F488E07B
S1134AA0089584E0089580E10895882321F08130F9
S1134AB021F480E4089580E2089580E8089588232D
S1134AC021F0813021F484E0089582E0089588E0A3
S1134AD008953F924F925F926F927F928F929F922E
S1134AE0AF92BF92CF92DF92EF92FF920F931F93F8
S1134AF0CF93DF9380914902811101C084E1BB24EB
S1134B00BA94B80EC0914702CB1509F403C189E2E7
S1134B10B89E80011124055B1D4FF8018588968895
S1134B20A788C08C61A172A183A194A19B01AC014F
S1134B300E948338F80125A136A147A150A50E94FF
S1134B409A3BD62EE72EF82ED92F262F372F482F13
S1134B50592F682D792D8A2D9C2D0E945C3988232C
S1134B6024F4D82CE92CFA2CDC2D4D2D5E2D6F2D40
S1134B707D2FF801418B528B638B748BB11004C071
S1134B800F2EF4E1BF2EF02DBA94CB1549F00F2E61
S1134B90F9E2AF2EF02D0F2EF4E19F2EF02D4DC033
S1134BA080914A02C8134DC00E94C71A4AC0AB9CE8
S1134BB0E0011124C55BDD4FB11001C0B92CBA94DA
S1134BC080914A028B1102C00E94C71ACD88DE88E8
S1134BD0EF88F88CA701960169897A898B899C8969
S1134BE00E945C39882341F169A17AA18BA19CA11F
S1134BF09B01AC010E9483382DA13EA14FA158A571
S1134C000E949A3BF80121893289438954890E9480
S1134C1083382B013C019B01AC01C701B6010E9402
S1134C205F3B18162CF4498A5A8A6B8A7C8A04C022
S1134C30C98ADA8AEB8AFC8A8E0180914702B8120B
S1134C40B6CF40904702F9E24F9E80011124055BE4
S1134C501D4F77247394740C84E1781201C0712C75
S1134C60609049020F2EF9E25F2EF02D312C4EC0D8
S1134C70579CE0011124C55BDD4FF80181889288BF
S1134C80A388B488C988DA88EB88FC88A7019601D0
S1134C90C501B4010E945C3988232CF5F80161A197
S1134CA072A183A194A19B01AC010E948338F801F5
S1134CB025A136A147A150A50E949A3B9B01AC01B6
S1134CC0C501B4010E9483384B015C019B01AC0116
S1134CD0C701B6010E945F3B18162CF4898A9A8A90
S1134CE0AB8ABC8A472C2D893E894F89588D6989A6
S1134CF07A898B899C890E945C39811101C0472C77
S1134D007394F4E17F1201C0732C8E017610B0CF3E
S1134D1040924702DF91CF911F910F91FF90EF9046
S1134D20DF90CF90BF90AF909F908F907F906F90C7
S1134D305F904F903F9008958CE1EBE2F2E0DF0149
S1134D401D928A95E9F710924A021092490281E075
S1134D508093480210924702089580914A029091EC
S1134D604902981769F091E0980F943109F490E0A2
S1134D7020914702821302C09093470290934A0203
S1134D80089580914A0290914902981739F029E2D6
S1134D90829FC0011124855B9D4F089580E090E0BF
S1134DA00895E0914A02EF5FE43109F4E0E0809174
S1134DB049028E1769F089E2E89FF0011124E55B4E
S1134DC0FD4F61897289838994890E94273C0895E3
S1134DD060E070E0CB01089581E020914A02909157
S1134DE04802291380E008952F923F924F925F92D8
S1134DF06F927F928F929F92AF92BF92CF92DF92E7
S1134E00EF92FF920F931F93CF93DF93CDB7DEB74B
S1134E10AD970FB6F894DEBF0FBECDBF49A35AA31A
S1134E206BA37CA32DA32091490249E2249F900106
S1134E301124F901E55BFD4F1F01158616861786BF
S1134E40108A15A216A217A210A6108249E956E7E5
S1134E5066E97EE741A352A363A374A35C0100E463
S1134E6017E0AE014F5F5F4F5C8F4B8F0F2EFBE25D
S1134E704F2EF2E05F2EF02D7F01CE010D966C01D6
S1134E80712CBE8EAD8EED8DFE8D619171918191EF
S1134E909191FE8FED8F18A30F8FF801208131813E
S1134EA0428153810E949A3B0E946A3BEB8DFC8DA8
S1134EB06193719381939193FC8FEB8FF2018190B5
S1134EC09190A190B1902F01681979098A099B09E1
S1134ED09B01AC013AF422273327A901261B370B87
S1134EE0480B590BF7012183328343835483F10127
S1134EF085849684A784B088281539054A055B05FE
S1134F0010F4A5019401F101258736874787508B5A
S1134F100E94FE39EF8DF8A12081318142815381B5
S1134F200E9463394B015C01F60161937193819393
S1134F3091936F0120E030E0A9010E945C3988233D
S1134F4044F4F1016080872D0E9455258629F101E2
S1134F508083A5019401C501B4010E949A3BF1012B
S1134F6025A136A147A150A50E948338F10165A36C
S1134F7076A387A390A773940C5F1F4FF4E0EF0E02
S1134F80F11C23E072127FCF0E94273C6B017C014D
S1134F90F10165A376A387A390A785859685A78548
S1134FA0B089892B8A2B8B2B09F4E6C120E030E0F1
S1134FB0A90169A17AA18BA19CA10E945C398823D3
S1134FC084F0FDA1FF23A9F029A13AA14BA15CA182
S1134FD0C701B6010E94633969A37AA38BA39CA37A
S1134FE008C029E929A346E74AA356E95BA38EE74B
S1134FF08CA3A701960160E070E080E89FE30E9423
S113500063396AA77BA78CA79DA7E7E3F2E0FE8F2D
S1135010ED8F0F2EFCE4EF2EF7E0FF2EF02DAE0106
S1135020475E5F4F5A8F498F8E01035F1F4F812C5C
S1135030912C54013C8E2B8E1701F801C080D18035
S1135040E280F38020E030E0A901C701B6010E94AC
S11350505C39882309F48EC0A70196016AA57BA553
S11350608CA59DA50E949A3B6B017C01F80160838D
S11350707183828393839B01AC0160E070E080E8DC
S11350809FE30E9463392B013C01E89477F839A629
S113509028A6F1012081318142815381C301B201EB
S11350A00E949A3B6F8F7DA38EA39FA329A13AA14F
S11350B04BA15CA10E945F3B181644F4F9A1FF8F39
S11350C02AA12DA34BA14EA35CA15FA3EB8DFC8D64
S11350D0F1A1F9A3EB8DFC8DF2A1FAA3EB8DFC8D6C
S11350E0F3A1FBA3EB8DFC8DF4A1FCA3E8A5F9A52A
S11350F02485358546855785C301B2010E949A3BB4
S1135100462E572E682E792E262F372F482F592FAB
S113511069A17AA18BA19CA10E945C3988232CF4FB
S113512049A05AA06BA02CA101C0272D842D952D38
S1135130A62DB22FEB8DFC8D81A392A3A3A3B4A3C0
S1135140ED8DFE8D2081318142815381C701B601ED
S11351500E949A3B9B01AC01C501B4010E948238B4
S11351604B015C01FF8DF9A32DA12AA34EA14BA3F2
S11351705FA15CA30C5F1F4F8D8D9E8D04969E8F47
S11351808D8F94E0290E311CE98DFA8D0E171F07BF
S113519009F053CF2B8C3C8C9091490280914A02A8
S11351A098130AC0F101118A128A138A148A118E83
S11351B0128E138E148E4DC0A501940160E070E030
S11351C080E89FE30E94823820E030E040E05FE323
S11351D00E949A3B0E94273C6B017C012091750739
S11351E0309176074091770750917807F10161A1DA
S11351F072A183A194A10E949A3BA70196010E94E7
S11352009A3B4B015C01A701960160E070E080E8E5
S11352109FE30E9482389B01AC01C501B4010E9446
S11352206339E62EF72E082F192F20E030E0A9016C
S11352300E945C39882324F4E12CF12C00E010E076
S11352404E2D5F2D602F712FF101418F528F638F8F
S1135250748F29A13AA14BA15CA169A17AA18BA168
S11352609CA10E949A3B162F072FF82EE92E862F19
S1135270902FAF2DBE2DF101858F968FA78FB0A3F0
S1135280918C828C738C648CA0904302B090440205
S1135290C0904502D09046022A2D3B2D4C2D5D2D09
S11352A0612F702F8F2D9E2D0E945C3988230CF462
S11352B055C02A2D3B2D4C2D5D2D692D782D872D24
S11352C0962D0E945C398823ACF02A2D3B2D4C2D61
S11352D05D2D612F702F8F2D9E2D0E945C398823A8
S11352E02CF4912E802E7F2C6E2C04C09A2C8B2CA7
S11352F07C2C6D2C892D982DA72DB62DF101858B35
S1135300968BA78BB08F8CE0FE013D96A7E3B2E0AD
S113531001900D928A95E1F7812F902FAF2DBE2D2C
S11353208093430290934402A0934502B0934602B3
S11353308CE0FE013196ABE2B2E001900D928A95C9
S1135340E1F780914802809349028F5F843109F428
S113535080E0809348020E9469250EC0292D382DD3
S1135360472D562D612F702F8F2D9E2D0E945F3B50
S113537018160CF0B6CFBECFAD960FB6F894DEBFBC
S11353800FBECDBFDF91CF911F910F91FF90EF9092
S1135390DF90CF90BF90AF909F908F907F906F9051
S11353A05F904F903F902F90089580918705909142
S11353B08805A0918905B0918A0580932B0290936A
S11353C02C02A0932D02B0932E0280918B05909114
S11353D08C05A0918D05B0918E0580932F0290933A
S11353E03002A0933102B093320280918F059091E4
S11353F09005A0919105B09192058093330290930A
S11354003402A0933502B093360208958091490284
S113541090914A02891710F0891B08958C5E891BAC
S113542008950E94C71A80914A02809347020E94FD
S1135430692508954F925F926F927F929F92AF92E7
S1135440BF92CF92DF92EF92FF920F931F93CF936D
S1135450DF937C018B016A01FB018081F701E80F76
S1135460F11D40814D3239F49F012E5F3F4F418140
S1135470AA24A3940CC04B3229F09F012F5F3F4F05
S1135480A12C05C09F012E5F3F4F4181A12CE0E07C
S113549050E0B12C60E070E0CB01F1E0E901405351
S11354A04A3020F55F5F5930E8F4E111BA942B01DA
S11354B03C01440C551C661C771C440C551C661C92
S11354C0771CDC01CB01840D951DA61DB71D880F2B
S11354D0991FAA1FBB1FBC01CD01640F711D811D43
S11354E0911D09C0E11107C0B39405C04E3F39F4C2
S11354F0E11107C0EF2F48812F5F3F4FCFCF9B2C87
S113550001C09B2C552309F450C00E94FC392B0187
S11355103C0120E030E0A9010E945C39882369F154
S1135520FFEF9F167CF42AE037ED43E25CE3C3010E
S1135530B2010E949A3B2B013C01B394B3948FEFC8
S1135540B8168CF3BB205CF42DEC3CEC4CEC5DE326
S1135550C301B2010E949A3B2B013C010EC01B14F3
S113556064F420E030E040E251E4C301B2010E945F
S11355709A3B2B013C01BA94A1F7AA2051F077FA87
S1135580709477F87094F60140825182628273823B
S113559005C0F6014082518262827382CE19DF090E
S11355A0C150F801C08381E001C080E0DF91CF9158
S11355B01F910F91FF90EF90DF90CF90BF90AF902D
S11355C09F907F906F905F904F900895009749F05F
S11355D0EFE9FFE03197F1F700C000000197009771
S11355E0B9F708958F929F92AF92BF92CF92DF92B4
S11355F0EF92FF9269017A019B01AC010E949A3BF0
S11356004B015C01A7019601C701B6010E949A3BB8
S11356109B01AC01C501B4010E9483380E94273C60
S1135620FF90EF90DF90CF90BF90AF909F908F90BE
S11356300895EBE6F0E08081817F8083E8E6F0E086
S113564080818E7F8083089584B1817F84B9809125
S11356507D0786FF04C085B1817F85B903C085B10C
S11356608E6085B980917D0783FF0BC0EBE6F0E087
S113567080818E608083E8E6F0E0808181608083B1
S113568008950E94192B08951F920F920FB60F923E
S113569011242F933F934F935F936F937F938F9333
S11356A09F93AF93BF93EF93FF93809184058130D1
S11356B071F08091850585FD0AC00E94D6098FB7D7
S11356C0F894E5E8F5E09081906690838FBFFF91B0
S11356D0EF91BF91AF919F918F917F916F915F9166
S11356E04F913F912F910F900FBE0F901F901895DF
S11356F02F923F924F925F926F927F928F929F92DE
S1135700AF92BF92CF92DF92EF92FF920F931F93CB
S1135710CF93DF93CDB7DEB7AE970FB6F894DEBF65
S11357200FBECDBFE82E809183058111FEC180910B
S1135730830790918407A0918507B09186078D8F88
S11357409E8FAF8FB8A31E019DE0290E311CDE0190
S11357505096BC8BAB8B0F2EF4E6AF2EF7E0BF2E2A
S1135760F02DBE8BAD8B6D018101F12C412C512CA0
S1135770712CEF8A942C852CE72C702E7218872DAF
S11357800E945F25D8018D938D01872D0E944B25A2
S1135790F60181936F01D5014D905D906D907D90E0
S11357A05D012F2D392D482D5E2DC301B2010E94BC
S11357B05C39882324F4F42C952C862CE72CED8971
S11357C0FE890E171F07C9F67E2CEF8820E030E013
S11357D040EC5FEB6F2D792D882D972D0E949A3B1D
S11357E06AA37BA38CA39DA30E949C26F6E0F9A345
S11357F041E04F8BCE0101969E8B8D8BCD88CB8E55
S1135800DE88DC8E8E2C912C8AA19BA1ACA1BDA13B
S1135810B0588FA398A7A9A7BAA7EEA2988E0F2E67
S1135820F6E8AF2EF5E0BF2EF02D3E0193E1690EB0
S1135830711C522C432C3B882C889A8E898E809123
S11358407D0786FD02C00F8903C001E0CF880C25C7
S113585080907E07912CDD88DDA6EE88EEA6EB8D88
S1135860FC8D80E090E010E060E07EA1272F388D71
S11358708BA7498D5A8D082E02C0559547950A94D9
S1135880E2F7DA01A170BB2740FF16C06F5FFF8803
S1135890F11009C0CFA0D8A4E9A4FAA4C082D1828F
S11358A0E282F3820DC0CAA0DBA0ECA0FDA0C082FE
S11358B0D182E282F38204C01082118212821382A6
S11358C0A4010BA402C0559547950A94E2F740FF42
S11358D00CC0C080D180E280F380F7FAF094F7F82E
S11358E0F094C082D182E282F382AB2B41F0A0E13A
S11358F0B0E0AC0FBD1FA80FB91F4C91142B01963B
S113590034968330910509F0B1CF3CA72BA770E002
S113591080E090E00E94FC390E94273CD5011C9352
S11359202D8D3E8D4F8D58A10E949A3BAB01BC0139
S113593020E08B8D9C8D0E94F4260E94E91A0E941F
S1135940B9170F2EFEE0DF2EF02D0F2EF5E8EF2E07
S1135950F5E0FF2EF02D23B101112D25A52DB42D39
S1135960E32DF22D8191982F912329F09C9192237C
S113597011F0809518231196E615F70599F7F501AE
S113598010830E94E91AD7018C9184FF03C00E94FE
S11359904E16CBC0812F8C71F1F60E94321A0E94F0
S11359A09C2680918707909188070E94E62AC090E0
S11359B07F07D0908007E0908107F0908207CD8E1A
S11359C0DE8EEF8EF8A281E0DF88D826DF8A49A137
S11359D0415049A3411133CF80907E07912C4090D0
S11359E0890750908A0760908B0770908C070F2E60
S11359F0F0E4CF2EF7E0DF2EF02D0F2EF7E8AF2ED8
S1135A00F5E0BF2EF02DEDA4FEA400E010E02BA4E1
S1135A103CA4C101002E02C0959587950A94E2F733
S1135A2080FF40C0C401002E02C0959587950A945A
S1135A30E2F780FF1FC0D60194966D917D918D9100
S1135A409C919797F7016083718382839383A30169
S1135A5092010E948338D6012D913D914D915C9124
S1135A600E949A3B0E946A3BF501608371838283A2
S1135A7093832BC0D7011D921D921D921C921397E4
S1135A80F6012081318142815381C301B2010E9418
S1135A909A3B0E94CB39D5016D937D938D939C9352
S1135AA0139713C0F50160817181828193810E94F3
S1135AB0FE39D6012D913D914D915C910E9463393F
S1135AC0F70160837183828393830F5F1F4FF4E038
S1135AD0EF0EF11C44E0C40ED11C84E0A80EB11CEE
S1135AE00330110509F095CF0E94D5294091830711
S1135AF050918407609185077091860720E0CE015C
S1135B0001960E94F42688E0809384058FB7F89468
S1135B10E5E8F5E09081926090838FBF0E944E1675
S1135B200E94911784E080938405AE960FB6F89492
S1135B30DEBF0FBECDBFDF91CF911F910F91FF90BC
S1135B40EF90DF90CF90BF90AF909F908F907F9019
S1135B506F905F904F903F902F900895AF92BF92B7
S1135B60CF92DF92EF92FF920F931F93CF93DF9325
S1135B70EC0104E617E00F2EF0E7AF2EF7E0BF2E9E
S1135B80F02DC990D990E990F99020E030E0A90176
S1135B90C701B6010E945F3B181664F0F801219119
S1135BA03191419151918F01C701B6010E945C3935
S1135BB088230CF580918405803181F48FB7F894A3
S1135BC0E5E8F5E09081986090838FBFC3E8D5E065
S1135BD00E944E1688818823D9F311C00E94D609E9
S1135BE08FB7F894E5E8F5E09081906690838FBFD5
S1135BF00E944E1604C00A151B0509F0C2CFDF919E
S1135C00CF911F910F91FF90EF90DF90CF90BF90B5
S1135C10AF900895CF93DF93EC018881882331F00E
S1135C2021960E948E1589918111FBCFDF91CF912E
S1135C300895CF93DF93EC012196FC01849188238E
S1135C4039F00E948E15FE01849121968111F9CFBD
S1135C50DF91CF910895EF92FF920F931F93CF930B
S1135C60DF93CDB7DEB728970FB6F894DEBF0FBE2B
S1135C70CDBFFE0131967F019E01275F3F4F982FD4
S1135C80917091938695E217F307C9F78E01075F28
S1135C901F4FF80182918F01805D0E948E150E15B1
S1135CA01F05B9F728960FB6F894DEBF0FBECDBF17
S1135CB0DF91CF911F910F91FF90EF9008951F9363
S1135CC0CF93DF9300D01F92CDB7DEB7811104C00C
S1135CD080E30E948E1528C090E04DEC11E0190F6E
S1135CE0E1E0F0E0EC0FFD1FE90FF11D849F912D21
